:1000000012C01FC01EC01DC01CC01BC01AC019C01A
:1000100018C017C016C015C014C013C012C011C03C
:1000200010C00FC00EC011241FBECFEDCDBF10E019
:10003000A0E6B0E001C01D92A136B107E1F702D001
:10004000E1C0DECFCF93DF93CDB7DD27CA50CDBF60
:1000500087B3866187BB912C812C712C612C512C2C
:10006000412C19861A861A821982292D382D472D7E
:10007000562D652D742D89859A85A1E0ABD02B83F3
:10008000232E342E5C836D837E838F839887922EFC
:10009000832E742E652E562E472E89879A8783ECE1
:1000A00099E00197F1F700C0000099E1A92EB12C69
:1000B000C12CD12CE12CF12C00E010E0292D322DA7
:1000C000432D562D652D742D89859A8544D0A0E049
:1000D0008DD049F49981911104C0C49AE1E0E9837B
:1000E00002C0C49819822B81237030E040E050E0B8
:1000F00060E070E080E090E0A0E078D059F490916A
:10010000600081E0892780936000882311F0C29A03
:1001100001C0C29880E9A82EBB24B394C12CD12C75
:10012000E12CF12C00E010E02B81322D432D5C817D
:100130006D817E818F8198850ED0A0E057D009F027
:1001400094CFFA81F11104C0C19A81E08A838DCFE6
:10015000C1981A828ACF689401C0E8948F929F92C6
:10016000CF93DF9305D0DF91CF919F908F9008952B
:1001700088249924F401E401B0E41B2ED401220F59
:10018000331F441F551F661F771F881F991F881C28
:10019000991CEE1FFF1FCC1FDD1FAA1FBB1F8A1457
:1001A0009B04EC05FD05CE05DF05A007B10748F06F
:1001B0008A189B08EC09FD09CE09DF09A00BB10BD9
:1001C00021601A94E1F62EF49401AF01BE01CD0135
:1001D000000C08950024A7FD00942A0F301D401D37
:1001E000501D601D701D801D901D08950024A7FDE9
:1001F00000942A17300540055005600570058005FC
:0802000090050895F894FFCF6A
:00000001FF
